{
  "contractName": "SchoolNetwork",
  "abi": [
    {
      "constant": true,
      "inputs": [
        {
          "name": "",
          "type": "uint256"
        }
      ],
      "name": "addressArray",
      "outputs": [
        {
          "name": "",
          "type": "address"
        }
      ],
      "payable": false,
      "stateMutability": "view",
      "type": "function"
    },
    {
      "constant": true,
      "inputs": [
        {
          "name": "",
          "type": "address"
        }
      ],
      "name": "schools",
      "outputs": [
        {
          "name": "schoolAddress",
          "type": "address"
        },
        {
          "name": "schoolName",
          "type": "string"
        }
      ],
      "payable": false,
      "stateMutability": "view",
      "type": "function"
    },
    {
      "inputs": [],
      "payable": false,
      "stateMutability": "nonpayable",
      "type": "constructor"
    },
    {
      "constant": false,
      "inputs": [
        {
          "name": "schoolAddress",
          "type": "address"
        },
        {
          "name": "schoolName",
          "type": "string"
        }
      ],
      "name": "addSchool",
      "outputs": [
        {
          "name": "",
          "type": "bool"
        }
      ],
      "payable": false,
      "stateMutability": "nonpayable",
      "type": "function"
    },
    {
      "constant": true,
      "inputs": [
        {
          "name": "schoolAddress",
          "type": "address"
        }
      ],
      "name": "getSchool",
      "outputs": [
        {
          "name": "schoolName",
          "type": "string"
        }
      ],
      "payable": false,
      "stateMutability": "view",
      "type": "function"
    }
  ],
  "bytecode": "0x608060405234801561001057600080fd5b5061006a737f4917b272d72907549bb46da4dfd6bd958b0ad56040518060400160405280601881526020017f4d6973747920506c61696e732048696768205363686f6f6c000000000000000081525061012460201b60201c565b506100c4738342ffb34ebe162f242da6d4099ab59edd3d3bfe6040518060400160405280601581526020017f536f757468766965772048696768205363686f6f6c000000000000000000000081525061012460201b60201c565b5061011e733a1437067e5b6d74a40b1727eeb0341cf16034cc6040518060400160405280601381526020017f44756e64616c6b2048696768205363686f6f6c0000000000000000000000000081525061012460201b60201c565b50610311565b6000826000808573ffffffffffffffffffffffffffffffffffffffff1673ffffffffffffffffffffffffffffffffffffffff16815260200190815260200160002060000160006101000a81548173ffffffffffffffffffffffffffffffffffffffff021916908373ffffffffffffffffffffffffffffffffffffffff160217905550816000808573ffffffffffffffffffffffffffffffffffffffff1673ffffffffffffffffffffffffffffffffffffffff16815260200190815260200160002060010190805190602001906101fb92919061026c565b5060018390806001815401808255809150509060018203906000526020600020016000909192909190916101000a81548173ffffffffffffffffffffffffffffffffffffffff021916908373ffffffffffffffffffffffffffffffffffffffff160217905550506001905092915050565b828054600181600116156101000203166002900490600052602060002090601f016020900481019282601f106102ad57805160ff19168380011785556102db565b828001600101855582156102db579182015b828111156102da5782518255916020019190600101906102bf565b5b5090506102e891906102ec565b5090565b61030e91905b8082111561030a5760008160009055506001016102f2565b5090565b90565b610773806103206000396000f3fe608060405234801561001057600080fd5b506004361061004c5760003560e01c80630f96cf341461005157806339194eb4146100bf578063727790fa1461017c578063a714c5de1461026c575b600080fd5b61007d6004803603602081101561006757600080fd5b810190808035906020019092919050505061035f565b604051808273ffffffffffffffffffffffffffffffffffffffff1673ffffffffffffffffffffffffffffffffffffffff16815260200191505060405180910390f35b610101600480360360208110156100d557600080fd5b81019080803573ffffffffffffffffffffffffffffffffffffffff16906020019092919050505061039b565b6040518080602001828103825283818151815260200191508051906020019080838360005b83811015610141578082015181840152602081019050610126565b50505050905090810190601f16801561016e5780820380516001836020036101000a031916815260200191505b509250505060405180910390f35b6101be6004803603602081101561019257600080fd5b81019080803573ffffffffffffffffffffffffffffffffffffffff16906020019092919050505061047e565b604051808373ffffffffffffffffffffffffffffffffffffffff1673ffffffffffffffffffffffffffffffffffffffff16815260200180602001828103825283818151815260200191508051906020019080838360005b83811015610230578082015181840152602081019050610215565b50505050905090810190601f16801561025d5780820380516001836020036101000a031916815260200191505b50935050505060405180910390f35b6103456004803603604081101561028257600080fd5b81019080803573ffffffffffffffffffffffffffffffffffffffff169060200190929190803590602001906401000000008111156102bf57600080fd5b8201836020820111156102d157600080fd5b803590602001918460018302840111640100000000831117156102f357600080fd5b91908080601f016020809104026020016040519081016040528093929190818152602001838380828437600081840152601f19601f82011690508083019250505050505050919291929050505061055a565b604051808215151515815260200191505060405180910390f35b6001818154811061036c57fe5b906000526020600020016000915054906101000a900473ffffffffffffffffffffffffffffffffffffffff1681565b60606000808373ffffffffffffffffffffffffffffffffffffffff1673ffffffffffffffffffffffffffffffffffffffff1681526020019081526020016000206001018054600181600116156101000203166002900480601f0160208091040260200160405190810160405280929190818152602001828054600181600116156101000203166002900480156104725780601f1061044757610100808354040283529160200191610472565b820191906000526020600020905b81548152906001019060200180831161045557829003601f168201915b50505050509050919050565b60006020528060005260406000206000915090508060000160009054906101000a900473ffffffffffffffffffffffffffffffffffffffff1690806001018054600181600116156101000203166002900480601f0160208091040260200160405190810160405280929190818152602001828054600181600116156101000203166002900480156105505780601f1061052557610100808354040283529160200191610550565b820191906000526020600020905b81548152906001019060200180831161053357829003601f168201915b5050505050905082565b6000826000808573ffffffffffffffffffffffffffffffffffffffff1673ffffffffffffffffffffffffffffffffffffffff16815260200190815260200160002060000160006101000a81548173ffffffffffffffffffffffffffffffffffffffff021916908373ffffffffffffffffffffffffffffffffffffffff160217905550816000808573ffffffffffffffffffffffffffffffffffffffff1673ffffffffffffffffffffffffffffffffffffffff16815260200190815260200160002060010190805190602001906106319291906106a2565b5060018390806001815401808255809150509060018203906000526020600020016000909192909190916101000a81548173ffffffffffffffffffffffffffffffffffffffff021916908373ffffffffffffffffffffffffffffffffffffffff160217905550506001905092915050565b828054600181600116156101000203166002900490600052602060002090601f016020900481019282601f106106e357805160ff1916838001178555610711565b82800160010185558215610711579182015b828111156107105782518255916020019190600101906106f5565b5b50905061071e9190610722565b5090565b61074491905b80821115610740576000816000905550600101610728565b5090565b9056fea165627a7a7230582000550ce20465ebcb541660ec2ff9042b51884b624a96e8b692dff88b39f9aaf30029",
  "source": "pragma solidity ^0.5.0;\r\n\r\ncontract SchoolNetwork {\r\n\r\n  struct SchoolStruct {\r\n    address schoolAddress;\r\n    string schoolName;\r\n  }\r\n//create mapping to allow for lookup by the address of school\r\n  mapping(address  => SchoolStruct) public schools;\r\n//create array of records\r\n  address[] public addressArray;\r\n\r\nfunction addSchool(\r\n  address schoolAddress,\r\n  string memory schoolName)\r\n  public\r\n  returns (bool){\r\n  schools[schoolAddress].schoolAddress = schoolAddress;\r\n  schools[schoolAddress].schoolName = schoolName;\r\n  addressArray.push(schoolAddress);\r\n  return true;\r\n}\r\n\r\nfunction getSchool(address schoolAddress) public view returns (string memory schoolName){\r\n  return (\r\n    schools[schoolAddress].schoolName);\r\n}\r\n\r\n//add schools for demo to the chain, using first three accounts from ganache\r\nconstructor() public {\r\n addSchool(0x7f4917B272d72907549bB46dA4dFd6Bd958b0Ad5, 'Misty Plains High School');\r\n addSchool(0x8342fFb34ebe162F242Da6D4099AB59eDd3d3bFe, 'Southview High School');\r\n addSchool(0x3a1437067e5b6D74A40B1727eeb0341cF16034CC, 'Dundalk High School');\r\n}\r\n}",
  "sourcePath": "C:/Users/KATRI/code/Week11/eth-blocked/contracts/SchoolNetwork.sol",
  "compiler": {
    "name": "solc",
    "version": "0.5.8+commit.23d335f2.Emscripten.clang"
  },
  "schemaVersion": "3.0.11",
  "updatedAt": "2019-08-21T16:46:30.867Z",
  "devdoc": {
    "methods": {}
  },
  "userdoc": {
    "methods": {}
  }
}